// liststreams liststreamitems
// IN: 'de6418206a3e1d5e8cbd79a044a618bb3788d6835a34761975081bb8a1a9bb00'
// OUT: {"result":"01000000010000000000000000000000000000000000000000000000000000000000000000ffffffff0d03e1ba020103062f503253482fffffffff0200f6701e160000001976a9141c3cb9d94bb987f6ef33e8ad0fa5dc4bf8310ecb88ac0000000000000000726a4c6f53504b6247304502210098ea194eca5c84e24e66e73e624d6ee7b21ba8fc26127f8ada799a353542f0d402201b43da7746c2ea676ebcdb5991d38f68baa29502f2a2ccba2ca52f324363fc43022102eee8a4eb1a6cf11df93167bca8e119f3f1937305a27cdc58810c0459438a1a4d00000000","error":null,"id":null}
// GetRawTransaction
{"result":{"hex":"01000000010000000000000000000000000000000000000000000000000000000000000000ffffffff0d03e1ba020103062f503253482fffffffff0200f6701e160000001976a9141c3cb9d94bb987f6ef33e8ad0fa5dc4bf8310ecb88ac0000000000000000726a4c6f53504b6247304502210098ea194eca5c84e24e66e73e624d6ee7b21ba8fc26127f8ada799a353542f0d402201b43da7746c2ea676ebcdb5991d38f68baa29502f2a2ccba2ca52f324363fc43022102eee8a4eb1a6cf11df93167bca8e119f3f1937305a27cdc58810c0459438a1a4d00000000","txid":"de6418206a3e1d5e8cbd79a044a618bb3788d6835a34761975081bb8a1a9bb00","version":1,"locktime":0,"vin":[{"coinbase":"03e1ba020103062f503253482f","sequence":4294967295}],"vout":[{"value":950,"n":0,"scriptPubKey":{"asm":"OP_DUP OP_HASH160 1c3cb9d94bb987f6ef33e8ad0fa5dc4bf8310ecb OP_EQUALVERIFY OP_CHECKSIG","hex":"76a9141c3cb9d94bb987f6ef33e8ad0fa5dc4bf8310ecb88ac","reqSigs":1,"type":"pubkeyhash","addresses":["14pMM8fbpk7ZdMrHjvwufPrZ29c8JAnM33gkQW"]}},{"value":0,"n":1,"scriptPubKey":{"asm":"OP_RETURN 53504b6247304502210098ea194eca5c84e24e66e73e624d6ee7b21ba8fc26127f8ada799a353542f0d402201b43da7746c2ea676ebcdb5991d38f68baa29502f2a2ccba2ca52f324363fc43022102eee8a4eb1a6cf11df93167bca8e119f3f1937305a27cdc58810c0459438a1a4d","hex":"6a4c6f53504b6247304502210098ea194eca5c84e24e66e73e624d6ee7b21ba8fc26127f8ada799a353542f0d402201b43da7746c2ea676ebcdb5991d38f68baa29502f2a2ccba2ca52f324363fc43022102eee8a4eb1a6cf11df93167bca8e119f3f1937305a27cdc58810c0459438a1a4d","type":"nulldata"},"data":["53504b6247304502210098ea194eca5c84e24e66e73e624d6ee7b21ba8fc26127f8ada799a353542f0d402201b43da7746c2ea676ebcdb5991d38f68baa29502f2a2ccba2ca52f324363fc43022102eee8a4eb1a6cf11df93167bca8e119f3f1937305a27cdc58810c0459438a1a4d"]}],"blockhash":"0000000048c239a5d4fa7141f42f9e747bd5aa0cef8ffb13e96ff32118d49910","confirmations":116,"time":1522927316,"blocktime":1522927316},"error":null,"id":null}
{
    "result": {
        "hex": "01000000010000000000000000000000000000000000000000000000000000000000000000ffffffff0d03e1ba020103062f503253482fffffffff0200f6701e160000001976a9141c3cb9d94bb987f6ef33e8ad0fa5dc4bf8310ecb88ac0000000000000000726a4c6f53504b6247304502210098ea194eca5c84e24e66e73e624d6ee7b21ba8fc26127f8ada799a353542f0d402201b43da7746c2ea676ebcdb5991d38f68baa29502f2a2ccba2ca52f324363fc43022102eee8a4eb1a6cf11df93167bca8e119f3f1937305a27cdc58810c0459438a1a4d00000000",
        "txid": "de6418206a3e1d5e8cbd79a044a618bb3788d6835a34761975081bb8a1a9bb00",
        "version": 1,
        "locktime": 0,
        "vin": [{
            "coinbase": "03e1ba020103062f503253482f",
            "sequence": 4294967295
        }],
        "vout": [{
            "value": 950,
            "n": 0,
            "scriptPubKey": {
                "asm": "OP_DUP OP_HASH160 1c3cb9d94bb987f6ef33e8ad0fa5dc4bf8310ecb OP_EQUALVERIFY OP_CHECKSIG",
                "hex": "76a9141c3cb9d94bb987f6ef33e8ad0fa5dc4bf8310ecb88ac",
                "reqSigs": 1,
                "type": "pubkeyhash",
                "addresses": ["14pMM8fbpk7ZdMrHjvwufPrZ29c8JAnM33gkQW"]
            }
        }, {
            "value": 0,
            "n": 1,
            "scriptPubKey": {
                "asm": "OP_RETURN 53504b6247304502210098ea194eca5c84e24e66e73e624d6ee7b21ba8fc26127f8ada799a353542f0d402201b43da7746c2ea676ebcdb5991d38f68baa29502f2a2ccba2ca52f324363fc43022102eee8a4eb1a6cf11df93167bca8e119f3f1937305a27cdc58810c0459438a1a4d",
                "hex": "6a4c6f53504b6247304502210098ea194eca5c84e24e66e73e624d6ee7b21ba8fc26127f8ada799a353542f0d402201b43da7746c2ea676ebcdb5991d38f68baa29502f2a2ccba2ca52f324363fc43022102eee8a4eb1a6cf11df93167bca8e119f3f1937305a27cdc58810c0459438a1a4d",
                "type": "nulldata"
            },
            "data": ["53504b6247304502210098ea194eca5c84e24e66e73e624d6ee7b21ba8fc26127f8ada799a353542f0d402201b43da7746c2ea676ebcdb5991d38f68baa29502f2a2ccba2ca52f324363fc43022102eee8a4eb1a6cf11df93167bca8e119f3f1937305a27cdc58810c0459438a1a4d"]
        }],
        "blockhash": "0000000048c239a5d4fa7141f42f9e747bd5aa0cef8ffb13e96ff32118d49910",
        "confirmations": 3,
        "time": 1522927316,
        "blocktime": 1522927316
    },
    "error": null,
    "id": null
}